:1000000045C0000060C000005EC000005CC0000091
:100010005AC0000058C0000056C0000054C0000084
:1000200052C0000050C000004EC000004CC0000094
:100030004AC00000A9C0000046C0000044C0000043
:1000400042C0000040C000003EC000003CC00000B4
:100050003AC0000038C0000036C0000034C00000C4
:1000600032C0000030C000002EC000002CC00000D4
:100070002AC0000028C0000026C0000024C00000E4
:1000800022C0000020C000001EC0000011241FBEBE
:10009000CFEFD0E4DEBFCDBF11E0A0E0B1E0E2E2FF
:1000A000F0E100E00BBF02C007900D92AE30B10747
:1000B000D9F721E0AEE0B1E001C01D92A832B2074D
:1000C000E1F783D4ACC79CCF181619065CF00895ED
:1000D000000021503109E1F74F5F5F4F841795070A
:1000E00019F4089540E050E027E033E0F1CF5E9846
:1000F00088B95F9A00005F9882E090E0E5CF0895AC
:10010000813118F48158F3CF08958155F0CF0895C7
:1001100084E690E0D9DF88E3EADF86E0E8DF8FE07D
:10012000E6DF81E0E4DF8AE090E0CECF08955E9ADA
:1001300088B95F9A00005F9881E090E0C5CF08958C
:100140008BE0809381008DE790E09093890080930D
:10015000880082E080936F001092850010928400E6
:1001600080910A0190910B01A0910C01B0910D01B9
:100170008093230190932401A0932501B09326013D
:100180008FB780688FBF08951F920F920FB60F929E
:1001900011248F939F93AF93BF93809123019091EC
:1001A0002401A0912501B09126010197A109B1096F
:1001B0008093230190932401A0932501B0932601FD
:1001C000892B8A2B8B2B99F481E0809327018091D6
:1001D0000A0190910B01A0910C01B0910D01809347
:1001E000230190932401A0932501B0932601BF9190
:1001F000AF919F918F910F900FBE0F901F90189508
:1002000060930A0170930B0180930C0190930D0190
:10021000609323017093240180932501909326011C
:100220000895CF92DF92EF92FF926B017C019B01C8
:10023000AC0160910E0170910F01809110019091BD
:10024000110174D5882309F452C020E030E0A901DF
:10025000C701B6016BD5811106C0E1E9F0E08081EC
:100260008870808305C0E1E9F0E08081836080834D
:1002700028E539E344E75FE3C701B60157D5882392
:100280003CF48FEF9FEF909399008093980023C0E8
:1002900020E034E244EF56E4C701B60159D61816FF
:1002A0002CF4109299001092980015C020E030E0D4
:1002B00040E053E4C701B6014FD69B01AC0160E0BA
:1002C00074E284EF9AE436D59DD56150710970933C
:1002D0009900609398001092950010929400C0923B
:1002E0000E01D0920F01E0921001F0921101FF90E7
:1002F000EF90DF90CF90089580E4809390008BE0A2
:100300008093910060E070E0CB018BCF08958091E5
:100310001901811145C080911301811141C081E013
:10032000EFDE80910801805D02DF82E0E9DE8091EE
:100330000901805DFCDE83E0E3DE8AE3F8DE84E031
:10034000DFDE80910601805DF2DE85E0D9DE8091FE
:100350000701805DECDE86E0D3DE8AE3E8DE87E03D
:10036000CFDE80910501805DE2DE88E0C9DE80910C
:100370002201805DDCDE80911601882349F089E04E
:10038000BFDE81E6D4DE8AE0BBDE8DE6D0DE08C0CB
:1003900089E0B6DE80E7CBDE8AE0B2DE8DE6C7DE3E
:1003A00080E0AECE0895809122018F5F8A3018F4EC
:1003B0008093220107C010922201809105018F5F76
:1003C0008093050180910501863038F01092050177
:1003D000809107018F5F80930701809107018A3028
:1003E00038F010920701809106018F5F809306011B
:1003F00080910601863038F0109206018091090143
:100400008F5F80930901809109018A3050F010922A
:100410000901809108018F5F80930801813031F5D7
:100420002DC080910801813009F580910901823049
:1004300011F580910601811124C08091070181117D
:1004400020C08091050181111CC080912201811181
:1004500018C09091160181E08927809316010895B4
:100460001092080181E0809309010895823048F0DC
:10047000109208010895833098F70895809109013A
:10048000FACF08958091190181118EC081E138DE83
:1004900083E54DDE85E44BDE84E549DE80E247DE20
:1004A00084E545DE89E443DE8DE441DE85E43FDE1C
:1004B0008091000125DE80911701813009F05AC03A
:1004C00080910001893039F49091160181E08927EB
:1004D000809316010895883049F4809122018F5F3E
:1004E0008A3008F45FC0109222010895873059F4D1
:1004F000809105018F5F863018F48093050108957F
:10050000109205010895853059F4809107018F5F9D
:100510008A3018F480930701089510920701089516
:10052000843059F4809106018F5F863018F48093EF
:1005300006010895109206010895823071F48091A9
:1005400009018F5F80930901833010F01092080138
:100550008A3050F1109209010895813091F4809110
:1005600008018F5F823018F480930801089510927B
:1005700008010895823029F4809100018150809310
:10058000000180910001833011F0863019F4815010
:100590008093000180910001811106C089E0809361
:1005A000000108958093220108958091190181111D
:1005B000D7C081E0A5DD80910301805DB8DD82E0D8
:1005C0009FDD80910401805DB2DD83E099DD8AE3E7
:1005D000AEDD84E095DD80912001805DA8DD85E0C1
:1005E0008FDD80912101805DA2DD86E089DD8AE3D7
:1005F0009EDD87E085DD80911E01805D98DD88E0CD
:100600007FDD80911F01805D92DD80910201882352
:1006100049F089E075DD81E68ADD8AE071DD8DE6ED
:1006200086DD08C089E06CDD80E781DD8AE068DD79
:100630008DE67DDD81E164DD83E579DD85E477DDCF
:1006400084E575DD80E273DD81E471DD8CE46FDDCE
:1006500081E46DDD82E56BDD8DE469DD8091000173
:100660004FDD80911701813009F060C08091000159
:10067000893039F49091020181E089278093020149
:100680000895883049F480911F018F5F8A3008F403
:1006900065C010921F010895873059F480911E01A2
:1006A0008F5F863018F480931E01089510921E010A
:1006B0000895853059F4809121018F5F8A3018F4B4
:1006C000809321010895109221010895843059F4F6
:1006D000809120018F5F863018F480932001089567
:1006E000109220010895823071F4809104018F5F8F
:1006F00080930401833010F0109203018A3080F15E
:100700001092040108958130C1F4809103018F5F3C
:10071000823018F48093030102C01092030180918B
:1007200004018330E8F0109204010895823029F426
:1007300080910001815080930001809100018330FD
:1007400011F0863019F481508093000180910001EE
:10075000811106C089E080930001089580931F01F4
:10076000089580911201882309F42EC1809115010A
:1007700081111CC080911401811118C081E1C0DC7D
:1007800081E4D5DC8CE4D3DC81E4D1DC82E5CFDC10
:100790008DE4CDDC80E2CBDC8FE4C9DC8EE4C7DC09
:1007A00080E2C5DC80E2C3DC80E0AADC9091080135
:1007B00080910301981335C0909109018091040143
:1007C00098132FC09091060180912001981329C0A1
:1007D0009091070180912101981323C09091050108
:1007E00080911E0198131DC09091220180911F01DC
:1007F000981317C09091160180910201981311C0AF
:1008000081E08093190180911A0190911B01A091C0
:100810001C01B0911D0188379105A105B105A0F01B
:1008200071C080911A0190911B01A0911C01B0919F
:100830001D0188379105A105B10508F063C020911D
:100840001901222309F45EC080FD06C060E070ED4E
:1008500082E094E4E6DC04C060E070E0CB01E1DC1F
:1008600081E080931301809101018823C9F081E028
:1008700047DC87E55CDC81E45ADC8BE458DC85E40A
:1008800056DC80E254DC85E552DC80E550DC81E218
:100890004EDC81E24CDC81E24ADC80E031DC18C0D5
:1008A00081E02EDC80E243DC80E241DC80E23FDC60
:1008B00080E23DDC80E23BDC80E239DC80E237DC58
:1008C00080E235DC80E233DC80E231DC80E018DC81
:1008D0009091010181E089278093010180911A01A3
:1008E00090911B01A0911C01B0911D010196A11DC9
:1008F000B11D80931A0190931B01A0931C01B0932A
:100900001D0114C080911801811155C0109213016E
:100910001092190160E070E0CB0183DC10921A01A3
:1009200010921B0110921C0110921D018091170161
:100930008823A9F080911901882389F0109213016E
:1009400081E08093180110921A0110921B011092FD
:100950001C0110921D0160E070E0CB0162DC80910F
:100960001801882389F180911A0190911B01A091AF
:100970001C01B0911D010196A11DB11D80931A01AA
:1009800090931B01A0931C01B0931D01CC97A1056E
:10099000B10518F410921901089581E080931901AE
:1009A0001092180110921A0110921B0110921C0152
:1009B00010921D010895809117018823A1F2809162
:1009C0001901882381F2BACF0895CF93DF93CDB771
:1009D000DEB728970FB6F894DEBF0FBECDBF11B8B3
:1009E0008FEF82B984B915B887B918B88AB91BB81E
:1009F00083DC8EDB61E070E080E090E001DCA0DB76
:100A000080B1809580931701C12CD12C7601412CA7
:100A1000512C3201812C912C540119821A821B8293
:100A20001C821D821E821F82188613C0BCDC1982A4
:100A30001A821B821C828D819E81AF81B8858A3F7C
:100A40009105A105B10528F062DC1D821E821F827E
:100A5000188696E989169104A104B10408F453C0DC
:100A600080911701843069F48091140181113EC195
:100A700080911501A1E08A2780931501811109C099
:100A80000DC080911501882361F0809114018111BE
:100A90002BC0F8DC812C912C540135C081112BC165
:100AA00004C080911401811123C080911201811131
:100AB00023C0B9E0B093000181E122DB80E237DBA3
:100AC00080E235DB80E233DB80E231DB80E22FDB6A
:100AD00080E22DDB80E22BDB80E229DB80E010DB93
:100AE000812C912C54010FC0812C912C54010BC0EE
:100AF000812C912C540107C0812C912C540103C0EE
:100B0000812C912C540126E9421651046104710490
:100B100008F45DC080911701883081F4809115013F
:100B20008111F4C08091140191E089278093140110
:100B300081110CC013C0812C912C5401809114019F
:100B4000882379F080911501811132C0A1E0A09332
:100B500013012BDD412C512C320139C08111DBC036
:100B600004C080911501811127C08091120181116B
:100B700027C010921301B9E0B093000181E1C0DAFF
:100B800080E2D5DA80E2D3DA80E2D1DA80E2CFDA2D
:100B900080E2CDDA80E2CBDA80E2C9DA80E2C7DA3D
:100BA00080E2C5DA80E0ACDA412C512C32010FC072
:100BB000412C512C32010BC0412C512C320107C069
:100BC000412C512C320103C0412C512C32012AEF0F
:100BD000C216D104E104F10408F44EC0809117015B
:100BE0008031D1F410921A0110921B0110921C0155
:100BF00010921D01109218011092190160E070E02E
:100C0000CB010FDB8091120191E0892780931201C3
:100C100003C0412C512C3201A4DD809112018111BD
:100C200020C080911501811120C080911401811193
:100C300020C081E165DA80E27ADA80E278DA80E267
:100C400076DA80E274DA80E272DA80E270DA80E2E8
:100C50006EDA80E26CDA80E053DAC12CD12C7601B6
:100C60000BC0C12CD12C760107C0C12CD12C760130
:100C700003C0C12CD12C7601809127018823E1F398
:100C80001092270189819A81AB81BC810196A11DB7
:100C9000B11D89839A83AB83BC839FEF891A990A1C
:100CA000A90AB90A8D819E81AF81B8850196A11DDF
:100CB000B11D8D839E83AF83B8879FEF491A590A70
:100CC000690A790AAFEFCA1ADA0AEA0AFA0A80B19F
:100CD00080958093170189819A81AB81BC81883E80
:100CE0009340A105B10508F4A6CEA0CE80911501D0
:100CF000811106CFD6CE86E94816510461047104ED
:100D000008F019CF812C912C540161CF80911401EE
:100D100081115ACF26CF9AEFC916D104E104F1040C
:100D200008F077CF412C512C3201A6CF9CD008F48B
:100D300081E008950CD0D2C0CAD040F0C1D030F0CC
:100D400021F45F3F19F0B3C05111FCC0B6C0D7D039
:100D500098F39923C9F35523B1F3951B550BBB2782
:100D6000AA2762177307840738F09F5F5F4F220F2F
:100D7000331F441FAA1FA9F333D00E2E3AF0E0E828
:100D800030D091505040E695001CCAF729D0FE2F74
:100D900027D0660F771F881FBB1F26173707480706
:100DA000AB07B0E809F0BB0B802DBF01FF279358BC
:100DB0005F4F2AF09E3F510568F079C0C3C05F3F86
:100DC000ECF3983EDCF3869577956795B795F795A4
:100DD0009F5FC9F7880F911D9695879597F908959C
:100DE000E1E0660F771F881FBB1F62177307840738
:100DF000BA0720F0621B730B840BBA0BEE1F88F747
:100E0000E095089504D06894B1119CC008957FD0F6
:100E100088F09F5790F0B92F9927B751A0F0D1F0E3
:100E2000660F771F881F991F1AF0BA95C9F712C06D
:100E3000B13081F086D0B1E0089583C0672F782F5C
:100E40008827B85F39F0B93FCCF3869577956795D9
:100E5000B395D9F73EF490958095709561957F4F45
:100E60008F4F9F4F0895990F0008550FAA0BE0E888
:100E7000FEEF16161706E807F907C0F0121613065C
:100E8000E407F50798F0621B730B840B950B39F49C
:100E90000A2661F0232B242B252B21F408950A2602
:100EA00009F4A140A6958FEF811D811D089597F942
:100EB0009F6780E870E060E008959FEF80EC089500
:100EC00000240A9416161706180609060895002429
:100ED0000A9412161306140605060895092E0394A3
:100EE000000C11F4882352F0BB0F40F4BF2B11F417
:100EF00060FF04C06F5F7F4F8F4F9F4F089557FD76
:100F00009058440F551F59F05F3F71F04795880F77
:100F100097FB991F61F09F3F79F08795089512160E
:100F200013061406551FF2CF4695F1DF08C01616BA
:100F300017061806991FF1CF86957105610508946B
:100F40000895E894BB2766277727CB0197F9089582
:100F50008ADF08F48FEF08950BD0C0CFB1DF28F0FF
:100F6000B6DF18F0952309F0A2CFA7CF1124EACF5E
:100F7000C6DFA0F3959FD1F3950F50E0551F629FF8
:100F8000F001729FBB27F00DB11D639FAA27F00DE2
:100F9000B11DAA1F649F6627B00DA11D661F829F09
:100FA0002227B00DA11D621F739FB00DA11D621FEE
:100FB000839FA00D611D221F749F3327A00D611D0B
:100FC000231F849F600D211D822F762F6A2F1124ED
:100FD0009F5750408AF0E1F088234AF0EE0FFF1F40
:100FE000BB1F661F771F881F91505040A9F79E3F77
:100FF000510570F05CCFA6CF5F3FECF3983EDCF379
:10100000869577956795B795F795E7959F5FC1F7B3
:10101000FE2B880F911D9695879597F90895F89462
:02102000FFCF00
:0E10220009010101020505090101010000009C
:00000001FF
